{
  "contractName": "TaskList",
  "abi": [
    {
      "inputs": [],
      "stateMutability": "nonpayable",
      "type": "constructor"
    },
    {
      "anonymous": false,
      "inputs": [
        {
          "indexed": false,
          "internalType": "uint256",
          "name": "id",
          "type": "uint256"
        },
        {
          "indexed": false,
          "internalType": "bool",
          "name": "completed",
          "type": "bool"
        }
      ],
      "name": "TaskCompleted",
      "type": "event"
    },
    {
      "anonymous": false,
      "inputs": [
        {
          "indexed": false,
          "internalType": "uint256",
          "name": "id",
          "type": "uint256"
        },
        {
          "indexed": false,
          "internalType": "string",
          "name": "content",
          "type": "string"
        },
        {
          "indexed": false,
          "internalType": "bool",
          "name": "completed",
          "type": "bool"
        }
      ],
      "name": "taskCreated",
      "type": "event"
    },
    {
      "inputs": [],
      "name": "taskCount",
      "outputs": [
        {
          "internalType": "uint256",
          "name": "",
          "type": "uint256"
        }
      ],
      "stateMutability": "view",
      "type": "function"
    },
    {
      "inputs": [
        {
          "internalType": "uint256",
          "name": "",
          "type": "uint256"
        }
      ],
      "name": "tasks",
      "outputs": [
        {
          "internalType": "uint256",
          "name": "id",
          "type": "uint256"
        },
        {
          "internalType": "string",
          "name": "content",
          "type": "string"
        },
        {
          "internalType": "bool",
          "name": "completed",
          "type": "bool"
        }
      ],
      "stateMutability": "view",
      "type": "function"
    },
    {
      "inputs": [
        {
          "internalType": "string",
          "name": "_content",
          "type": "string"
        }
      ],
      "name": "createTask",
      "outputs": [],
      "stateMutability": "nonpayable",
      "type": "function"
    },
    {
      "inputs": [
        {
          "internalType": "uint256",
          "name": "_id",
          "type": "uint256"
        }
      ],
      "name": "toggleCompleted",
      "outputs": [],
      "stateMutability": "nonpayable",
      "type": "function"
    },
    {
      "inputs": [],
      "name": "getTaskCount",
      "outputs": [
        {
          "internalType": "uint256",
          "name": "",
          "type": "uint256"
        }
      ],
      "stateMutability": "view",
      "type": "function"
    }
  ],
  "bytecode": "0x6080604052600080553480156200001557600080fd5b506200005c6040518060400160405280600881526020017f6e6577205461736b0000000000000000000000000000000000000000000000008152506200006260201b60201c565b620003f0565b600080815480929190620000769062000227565b919050555060405180606001604052806000548152602001828152602001600015158152506001600080548152602001908152602001600020600082015181600001556020820151816001019080519060200190620000d79291906200013e565b5060408201518160020160006101000a81548160ff0219169083151502179055509050507f7ffc5def84f84c9a24e3f0ad22a6aa1dcf1626b3936280fe2f8e5d38c636b641600054826000604051620001339392919062000347565b60405180910390a150565b8280546200014c90620003ba565b90600052602060002090601f016020900481019282620001705760008555620001bc565b82601f106200018b57805160ff1916838001178555620001bc565b82800160010185558215620001bc579182015b82811115620001bb5782518255916020019190600101906200019e565b5b509050620001cb9190620001cf565b5090565b5b80821115620001ea576000816000905550600101620001d0565b5090565b7f4e487b7100000000000000000000000000000000000000000000000000000000600052601160045260246000fd5b6000819050919050565b600062000234826200021d565b91507fffffffffffffffffffffffffffffffffffffffffffffffffffffffffffffffff8214156200026a5762000269620001ee565b5b600182019050919050565b62000280816200021d565b82525050565b600081519050919050565b600082825260208201905092915050565b60005b83811015620002c2578082015181840152602081019050620002a5565b83811115620002d2576000848401525b50505050565b6000601f19601f8301169050919050565b6000620002f68262000286565b62000302818562000291565b935062000314818560208601620002a2565b6200031f81620002d8565b840191505092915050565b60008115159050919050565b62000341816200032a565b82525050565b60006060820190506200035e600083018662000275565b8181036020830152620003728185620002e9565b905062000383604083018462000336565b949350505050565b7f4e487b7100000000000000000000000000000000000000000000000000000000600052602260045260246000fd5b60006002820490506001821680620003d357607f821691505b60208210811415620003ea57620003e96200038b565b5b50919050565b61091f80620004006000396000f3fe608060405234801561001057600080fd5b50600436106100575760003560e01c8063111002aa1461005c578063455f5024146100785780638d97767214610094578063b6cb58a5146100c6578063c17a340e146100e4575b600080fd5b61007660048036038101906100719190610630565b610102565b005b610092600480360381019061008d91906106af565b6101d8565b005b6100ae60048036038101906100a991906106af565b610365565b6040516100bd9392919061078e565b60405180910390f35b6100ce610424565b6040516100db91906107cc565b60405180910390f35b6100ec61042a565b6040516100f991906107cc565b60405180910390f35b60008081548092919061011490610816565b919050555060405180606001604052806000548152602001828152602001600015158152506001600080548152602001908152602001600020600082015181600001556020820151816001019080519060200190610173929190610433565b5060408201518160020160006101000a81548160ff0219169083151502179055509050507f7ffc5def84f84c9a24e3f0ad22a6aa1dcf1626b3936280fe2f8e5d38c636b6416000548260006040516101cd9392919061078e565b60405180910390a150565b600060016000838152602001908152602001600020604051806060016040529081600082015481526020016001820180546102129061088e565b80601f016020809104026020016040519081016040528092919081815260200182805461023e9061088e565b801561028b5780601f106102605761010080835404028352916020019161028b565b820191906000526020600020905b81548152906001019060200180831161026e57829003601f168201915b505050505081526020016002820160009054906101000a900460ff16151515158152505090508060400151158160400190151590811515815250508060016000848152602001908152602001600020600082015181600001556020820151816001019080519060200190610300929190610433565b5060408201518160020160006101000a81548160ff0219169083151502179055509050507fe21fa966ca5cd02748c0752352d18c48165e61cb55b4c29cccf924b5a95fcff18282604001516040516103599291906108c0565b60405180910390a15050565b600160205280600052604060002060009150905080600001549080600101805461038e9061088e565b80601f01602080910402602001604051908101604052809291908181526020018280546103ba9061088e565b80156104075780601f106103dc57610100808354040283529160200191610407565b820191906000526020600020905b8154815290600101906020018083116103ea57829003601f168201915b5050505050908060020160009054906101000a900460ff16905083565b60005481565b60008054905090565b82805461043f9061088e565b90600052602060002090601f01602090048101928261046157600085556104a8565b82601f1061047a57805160ff19168380011785556104a8565b828001600101855582156104a8579182015b828111156104a757825182559160200191906001019061048c565b5b5090506104b591906104b9565b5090565b5b808211156104d25760008160009055506001016104ba565b5090565b6000604051905090565b600080fd5b600080fd5b600080fd5b600080fd5b6000601f19601f8301169050919050565b7f4e487b7100000000000000000000000000000000000000000000000000000000600052604160045260246000fd5b61053d826104f4565b810181811067ffffffffffffffff8211171561055c5761055b610505565b5b80604052505050565b600061056f6104d6565b905061057b8282610534565b919050565b600067ffffffffffffffff82111561059b5761059a610505565b5b6105a4826104f4565b9050602081019050919050565b82818337600083830152505050565b60006105d36105ce84610580565b610565565b9050828152602081018484840111156105ef576105ee6104ef565b5b6105fa8482856105b1565b509392505050565b600082601f830112610617576106166104ea565b5b81356106278482602086016105c0565b91505092915050565b600060208284031215610646576106456104e0565b5b600082013567ffffffffffffffff811115610664576106636104e5565b5b61067084828501610602565b91505092915050565b6000819050919050565b61068c81610679565b811461069757600080fd5b50565b6000813590506106a981610683565b92915050565b6000602082840312156106c5576106c46104e0565b5b60006106d38482850161069a565b91505092915050565b6106e581610679565b82525050565b600081519050919050565b600082825260208201905092915050565b60005b8381101561072557808201518184015260208101905061070a565b83811115610734576000848401525b50505050565b6000610745826106eb565b61074f81856106f6565b935061075f818560208601610707565b610768816104f4565b840191505092915050565b60008115159050919050565b61078881610773565b82525050565b60006060820190506107a360008301866106dc565b81810360208301526107b5818561073a565b90506107c4604083018461077f565b949350505050565b60006020820190506107e160008301846106dc565b92915050565b7f4e487b7100000000000000000000000000000000000000000000000000000000600052601160045260246000fd5b600061082182610679565b91507fffffffffffffffffffffffffffffffffffffffffffffffffffffffffffffffff821415610854576108536107e7565b5b600182019050919050565b7f4e487b7100000000000000000000000000000000000000000000000000000000600052602260045260246000fd5b600060028204905060018216806108a657607f821691505b602082108114156108ba576108b961085f565b5b50919050565b60006040820190506108d560008301856106dc565b6108e2602083018461077f565b939250505056fea2646970667358221220d8082cf78f2eab8ca80f2df83fdaab8112d87ceac3e3d2c47a57548012a7603764736f6c634300080a0033",
  "immutableReferences": {},
  "source": "// SPDX-License-Identifier: MIT\r\npragma solidity >=0.4.22 <0.9.0;\r\n\r\ncontract TaskList {\r\n  uint public taskCount = 0;\r\n\r\n  struct Task {\r\n    uint id;\r\n    string content;\r\n    bool completed;\r\n  }\r\n\r\n  mapping(uint => Task) public tasks;\r\n\r\n  event taskCreated (uint id, string content, bool completed);\r\n  event TaskCompleted (uint id, bool completed);\r\n\r\n  constructor() {\r\n    createTask(\"new Task\");\r\n  }\r\n\r\n  function createTask(string memory _content) public {\r\n    taskCount ++;\r\n    tasks[taskCount] = Task(taskCount, _content, false);\r\n    emit taskCreated(taskCount, _content, false);\r\n  }\r\n\r\n  function toggleCompleted(uint _id) public {\r\n    Task memory _task = tasks[_id];\r\n    _task.completed = !_task.completed;\r\n    tasks[_id] = _task;\r\n    emit TaskCompleted(_id, _task.completed);\r\n  }\r\n  \r\n  function getTaskCount() public view returns (uint) {\r\n      return taskCount;\r\n  }\r\n\r\n}",
  "sourcePath": "E:\\work\\solidity\\eth-todo-list\\contracts\\TaskList.sol",
  "compiler": {
    "name": "solc",
    "version": "0.8.10+commit.fc410830.Emscripten.clang"
  },
  "schemaVersion": "3.4.3",
  "updatedAt": "2021-11-28T09:23:01.058Z",
  "devdoc": {
    "kind": "dev",
    "methods": {},
    "version": 1
  },
  "userdoc": {
    "kind": "user",
    "methods": {},
    "version": 1
  }
}